:09022700010B00010C00010800AC
:10018F00D2A2C2A3D2A4C2A5D281C282D283C28478
:07019F007508B9750CB922C7
:1001A600D2A2C2A3D2A4C2A5C281D282C283D28461
:0701B600750878750C642246
:1001BD00D2A2C2A3D2A4C2A5C281D282C283D2844A
:0701CD00750864750C502257
:1001D400C2A2D2A3C2A4D2A5D281C282D283C28433
:0701E400750864750C782218
:1001EB00C2A2D2A3C2A4D2A5D281C282D283C2841C
:0701FB00750850750C642229
:10021600C2A2C2A3C2A4C2A5C281C282C283C28430
:0102260022B5
:10000E0020900920910620930330921830900930E9
:10001E00910630930320920C30900E20910B20937A
:10002E0008309205E4F509F50A30900F20910C2066
:10003E009309209206750900750A0120900F2091F0
:10004E000C209309309206750900750A022090095A
:10005E0020910630930330920C20900F20910C309B
:10006E009309309206750900750A032090093091A4
:10007E000620930330920C30900F30910C20930990
:10008E00209206750900750A04E509702DE50A141B
:10009E0060101460131460161460192404701B028F
:1000AE00018F1202160201D41202160201A61202CA
:0E00BE00160201BD1202160201EB12021622FA
:10020200758902758CDC758ADCD28CD2A9D2AF12C8
:04021200000E80FB5F
:03000B0002015897
:10015800C0E0C0D0C3748094814003750B14E50BD4
:10016800C395085006C286C2858004D286D285E52A
:100178000BC3950C5006C2A1C2A68004D2A1D2A678
:07018800050BD0D0D0E032DE
:030000000200CC2F
:0C00CC00787FE4F6D8FD75810C0201136A
:1000D800020202E493A3F8E493A34003F68001F23A
:1000E80008DFF48029E493A3F85407240CC8C33329
:1000F800C4540F4420C8834004F456800146F6DFF8
:10010800E4800B0102040810204080900227E47E5E
:10011800019360BCA3FF543F30E509541FFEE493EC
:10012800A360010ECF54C025E060A840B8E493A3B3
:10013800FAE493A3F8E493A3C8C582C8CAC583CADE
:10014800F0A3C8C582C8CAC583CADFE9DEE780BE96
:0102300000CD
:00000001FF
